{
  "_format": "hh-sol-artifact-1",
  "contractName": "FoodToken",
  "sourceName": "contracts/FoodToken.sol",
  "abi": [
    {
      "inputs": [],
      "stateMutability": "nonpayable",
      "type": "constructor"
    },
    {
      "anonymous": false,
      "inputs": [
        {
          "indexed": true,
          "internalType": "address",
          "name": "owner",
          "type": "address"
        },
        {
          "indexed": true,
          "internalType": "address",
          "name": "spender",
          "type": "address"
        },
        {
          "indexed": false,
          "internalType": "uint256",
          "name": "value",
          "type": "uint256"
        }
      ],
      "name": "Approval",
      "type": "event"
    },
    {
      "anonymous": false,
      "inputs": [
        {
          "indexed": true,
          "internalType": "address",
          "name": "previousOwner",
          "type": "address"
        },
        {
          "indexed": true,
          "internalType": "address",
          "name": "newOwner",
          "type": "address"
        }
      ],
      "name": "OwnershipTransferred",
      "type": "event"
    },
    {
      "anonymous": false,
      "inputs": [
        {
          "indexed": true,
          "internalType": "address",
          "name": "user",
          "type": "address"
        },
        {
          "indexed": false,
          "internalType": "uint256",
          "name": "amount",
          "type": "uint256"
        }
      ],
      "name": "Staked",
      "type": "event"
    },
    {
      "anonymous": false,
      "inputs": [
        {
          "indexed": true,
          "internalType": "address",
          "name": "from",
          "type": "address"
        },
        {
          "indexed": true,
          "internalType": "address",
          "name": "to",
          "type": "address"
        },
        {
          "indexed": false,
          "internalType": "uint256",
          "name": "value",
          "type": "uint256"
        }
      ],
      "name": "Transfer",
      "type": "event"
    },
    {
      "anonymous": false,
      "inputs": [
        {
          "indexed": true,
          "internalType": "address",
          "name": "user",
          "type": "address"
        },
        {
          "indexed": false,
          "internalType": "uint256",
          "name": "amount",
          "type": "uint256"
        },
        {
          "indexed": false,
          "internalType": "uint256",
          "name": "rewards",
          "type": "uint256"
        }
      ],
      "name": "Unstaked",
      "type": "event"
    },
    {
      "inputs": [],
      "name": "SECONDS_PER_YEAR",
      "outputs": [
        {
          "internalType": "uint256",
          "name": "",
          "type": "uint256"
        }
      ],
      "stateMutability": "view",
      "type": "function"
    },
    {
      "inputs": [],
      "name": "STAKING_REWARD_RATE",
      "outputs": [
        {
          "internalType": "uint256",
          "name": "",
          "type": "uint256"
        }
      ],
      "stateMutability": "view",
      "type": "function"
    },
    {
      "inputs": [
        {
          "internalType": "address",
          "name": "owner",
          "type": "address"
        },
        {
          "internalType": "address",
          "name": "spender",
          "type": "address"
        }
      ],
      "name": "allowance",
      "outputs": [
        {
          "internalType": "uint256",
          "name": "",
          "type": "uint256"
        }
      ],
      "stateMutability": "view",
      "type": "function"
    },
    {
      "inputs": [
        {
          "internalType": "address",
          "name": "spender",
          "type": "address"
        },
        {
          "internalType": "uint256",
          "name": "amount",
          "type": "uint256"
        }
      ],
      "name": "approve",
      "outputs": [
        {
          "internalType": "bool",
          "name": "",
          "type": "bool"
        }
      ],
      "stateMutability": "nonpayable",
      "type": "function"
    },
    {
      "inputs": [
        {
          "internalType": "address",
          "name": "account",
          "type": "address"
        }
      ],
      "name": "balanceOf",
      "outputs": [
        {
          "internalType": "uint256",
          "name": "",
          "type": "uint256"
        }
      ],
      "stateMutability": "view",
      "type": "function"
    },
    {
      "inputs": [
        {
          "internalType": "address",
          "name": "user",
          "type": "address"
        }
      ],
      "name": "calculateRewards",
      "outputs": [
        {
          "internalType": "uint256",
          "name": "",
          "type": "uint256"
        }
      ],
      "stateMutability": "view",
      "type": "function"
    },
    {
      "inputs": [],
      "name": "claimStakingRewards",
      "outputs": [],
      "stateMutability": "nonpayable",
      "type": "function"
    },
    {
      "inputs": [],
      "name": "decimals",
      "outputs": [
        {
          "internalType": "uint8",
          "name": "",
          "type": "uint8"
        }
      ],
      "stateMutability": "view",
      "type": "function"
    },
    {
      "inputs": [
        {
          "internalType": "address",
          "name": "spender",
          "type": "address"
        },
        {
          "internalType": "uint256",
          "name": "subtractedValue",
          "type": "uint256"
        }
      ],
      "name": "decreaseAllowance",
      "outputs": [
        {
          "internalType": "bool",
          "name": "",
          "type": "bool"
        }
      ],
      "stateMutability": "nonpayable",
      "type": "function"
    },
    {
      "inputs": [
        {
          "internalType": "address",
          "name": "spender",
          "type": "address"
        },
        {
          "internalType": "uint256",
          "name": "addedValue",
          "type": "uint256"
        }
      ],
      "name": "increaseAllowance",
      "outputs": [
        {
          "internalType": "bool",
          "name": "",
          "type": "bool"
        }
      ],
      "stateMutability": "nonpayable",
      "type": "function"
    },
    {
      "inputs": [
        {
          "internalType": "address",
          "name": "to",
          "type": "address"
        },
        {
          "internalType": "uint256",
          "name": "amount",
          "type": "uint256"
        }
      ],
      "name": "mint",
      "outputs": [],
      "stateMutability": "nonpayable",
      "type": "function"
    },
    {
      "inputs": [],
      "name": "name",
      "outputs": [
        {
          "internalType": "string",
          "name": "",
          "type": "string"
        }
      ],
      "stateMutability": "view",
      "type": "function"
    },
    {
      "inputs": [],
      "name": "owner",
      "outputs": [
        {
          "internalType": "address",
          "name": "",
          "type": "address"
        }
      ],
      "stateMutability": "view",
      "type": "function"
    },
    {
      "inputs": [],
      "name": "renounceOwnership",
      "outputs": [],
      "stateMutability": "nonpayable",
      "type": "function"
    },
    {
      "inputs": [
        {
          "internalType": "uint256",
          "name": "amount",
          "type": "uint256"
        }
      ],
      "name": "stake",
      "outputs": [],
      "stateMutability": "nonpayable",
      "type": "function"
    },
    {
      "inputs": [
        {
          "internalType": "address",
          "name": "",
          "type": "address"
        }
      ],
      "name": "stakedBalances",
      "outputs": [
        {
          "internalType": "uint256",
          "name": "",
          "type": "uint256"
        }
      ],
      "stateMutability": "view",
      "type": "function"
    },
    {
      "inputs": [
        {
          "internalType": "address",
          "name": "",
          "type": "address"
        }
      ],
      "name": "stakingTimestamps",
      "outputs": [
        {
          "internalType": "uint256",
          "name": "",
          "type": "uint256"
        }
      ],
      "stateMutability": "view",
      "type": "function"
    },
    {
      "inputs": [],
      "name": "symbol",
      "outputs": [
        {
          "internalType": "string",
          "name": "",
          "type": "string"
        }
      ],
      "stateMutability": "view",
      "type": "function"
    },
    {
      "inputs": [],
      "name": "totalSupply",
      "outputs": [
        {
          "internalType": "uint256",
          "name": "",
          "type": "uint256"
        }
      ],
      "stateMutability": "view",
      "type": "function"
    },
    {
      "inputs": [
        {
          "internalType": "address",
          "name": "to",
          "type": "address"
        },
        {
          "internalType": "uint256",
          "name": "amount",
          "type": "uint256"
        }
      ],
      "name": "transfer",
      "outputs": [
        {
          "internalType": "bool",
          "name": "",
          "type": "bool"
        }
      ],
      "stateMutability": "nonpayable",
      "type": "function"
    },
    {
      "inputs": [
        {
          "internalType": "address",
          "name": "from",
          "type": "address"
        },
        {
          "internalType": "address",
          "name": "to",
          "type": "address"
        },
        {
          "internalType": "uint256",
          "name": "amount",
          "type": "uint256"
        }
      ],
      "name": "transferFrom",
      "outputs": [
        {
          "internalType": "bool",
          "name": "",
          "type": "bool"
        }
      ],
      "stateMutability": "nonpayable",
      "type": "function"
    },
    {
      "inputs": [
        {
          "internalType": "address",
          "name": "newOwner",
          "type": "address"
        }
      ],
      "name": "transferOwnership",
      "outputs": [],
      "stateMutability": "nonpayable",
      "type": "function"
    },
    {
      "inputs": [
        {
          "internalType": "uint256",
          "name": "amount",
          "type": "uint256"
        }
      ],
      "name": "unstake",
      "outputs": [],
      "stateMutability": "nonpayable",
      "type": "function"
    }
  ],
  "bytecode": "0x60806040523480156200001157600080fd5b506040518060400160405280601381526020017f4e617a6465656b6920466f6f6420546f6b656e00000000000000000000000000815250604051806040016040528060048152602001631193d3d160e21b815250816003908162000076919062000295565b50600462000085828262000295565b505050620000a26200009c620000d060201b60201c565b620000d4565b620000ca33620000b56012600a62000476565b620000c490620f42406200048e565b62000126565b620004be565b3390565b600580546001600160a01b038381166001600160a01b0319831681179093556040519116919082907f8be0079c531659141344cd1fd0a4f28419497f9722a3daafe3b4186f6b6457e090600090a35050565b6001600160a01b038216620001815760405162461bcd60e51b815260206004820152601f60248201527f45524332303a206d696e7420746f20746865207a65726f206164647265737300604482015260640160405180910390fd5b8060026000828254620001959190620004a8565b90915550506001600160a01b038216600081815260208181526040808320805486019055518481527fddf252ad1be2c89b69c2b068fc378daa952ba7f163c4a11628f55a4df523b3ef910160405180910390a35050565b505050565b634e487b7160e01b600052604160045260246000fd5b600181811c908216806200021c57607f821691505b6020821081036200023d57634e487b7160e01b600052602260045260246000fd5b50919050565b601f821115620001ec57600081815260208120601f850160051c810160208610156200026c5750805b601f850160051c820191505b818110156200028d5782815560010162000278565b505050505050565b81516001600160401b03811115620002b157620002b1620001f1565b620002c981620002c2845462000207565b8462000243565b602080601f831160018114620003015760008415620002e85750858301515b600019600386901b1c1916600185901b1785556200028d565b600085815260208120601f198616915b82811015620003325788860151825594840194600190910190840162000311565b5085821015620003515787850151600019600388901b60f8161c191681555b5050505050600190811b01905550565b634e487b7160e01b600052601160045260246000fd5b600181815b80851115620003b85781600019048211156200039c576200039c62000361565b80851615620003aa57918102915b93841c93908002906200037c565b509250929050565b600082620003d15750600162000470565b81620003e05750600062000470565b8160018114620003f95760028114620004045762000424565b600191505062000470565b60ff84111562000418576200041862000361565b50506001821b62000470565b5060208310610133831016604e8410600b841016171562000449575081810a62000470565b62000455838362000377565b80600019048211156200046c576200046c62000361565b0290505b92915050565b60006200048760ff841683620003c0565b9392505050565b808202811582820484141762000470576200047062000361565b8082018082111562000470576200047062000361565b610f4b80620004ce6000396000f3fe608060405234801561001057600080fd5b506004361061014d5760003560e01c80636b69e05b116100c3578063a457c2d71161007c578063a457c2d7146102bd578063a694fc3a146102d0578063a9059cbb146102e3578063dd62ed3e146102f6578063e6a69ab814610309578063f2fde38b1461031457600080fd5b80636b69e05b1461024157806370a0823114610249578063715018a6146102725780638da5cb5b1461027a578063937b983b1461029557806395d89b41146102b557600080fd5b806323b872dd1161011557806323b872dd146101d15780632e17de78146101e4578063313ce567146101f9578063395093511461020857806340c10f191461021b57806364ab86751461022e57600080fd5b806306fdde0314610152578063095ea7b3146101705780630f1a2905146101935780631460fa87146101a957806318160ddd146101c9575b600080fd5b61015a610327565b6040516101679190610d2f565b60405180910390f35b61018361017e366004610d99565b6103b9565b6040519015158152602001610167565b61019b600a81565b604051908152602001610167565b61019b6101b7366004610dc3565b60066020526000908152604090205481565b60025461019b565b6101836101df366004610dde565b6103d3565b6101f76101f2366004610e1a565b6103f7565b005b60405160128152602001610167565b610183610216366004610d99565b6104fb565b6101f7610229366004610d99565b61051d565b61019b61023c366004610dc3565b610533565b6101f76105d0565b61019b610257366004610dc3565b6001600160a01b031660009081526020819052604090205490565b6101f7610603565b6005546040516001600160a01b039091168152602001610167565b61019b6102a3366004610dc3565b60076020526000908152604090205481565b61015a610617565b6101836102cb366004610d99565b610626565b6101f76102de366004610e1a565b6106a1565b6101836102f1366004610d99565b6107d3565b61019b610304366004610e33565b6107e1565b61019b6301e1338081565b6101f7610322366004610dc3565b61080c565b60606003805461033690610e66565b80601f016020809104026020016040519081016040528092919081815260200182805461036290610e66565b80156103af5780601f10610384576101008083540402835291602001916103af565b820191906000526020600020905b81548152906001019060200180831161039257829003601f168201915b5050505050905090565b6000336103c7818585610882565b60019150505b92915050565b6000336103e18582856109a6565b6103ec858585610a20565b506001949350505050565b3360009081526006602052604090205481111561045b5760405162461bcd60e51b815260206004820152601b60248201527f496e73756666696369656e74207374616b65642062616c616e6365000000000060448201526064015b60405180910390fd5b600061046633610533565b3360009081526006602052604081208054929350849290919061048a908490610eb6565b9091555061049b9050303384610a20565b80156104ab576104ab3382610bc4565b3360008181526007602090815260409182902042905581518581529081018490527f7fc4727e062e336010f2c282598ef5f14facb3de68cf8195c2f23e1454b2b74e910160405180910390a25050565b6000336103c781858561050e83836107e1565b6105189190610ec9565b610882565b610525610c83565b61052f8282610bc4565b5050565b6001600160a01b038116600090815260066020526040812054810361055a57506000919050565b6001600160a01b03821660009081526007602052604081205461057d9042610eb6565b905061058e6301e133806064610edc565b6001600160a01b03841660009081526006602052604090205482906105b590600a90610edc565b6105bf9190610edc565b6105c99190610ef3565b9392505050565b60006105db33610533565b90508015610600576105ed3382610bc4565b3360009081526007602052604090204290555b50565b61060b610c83565b6106156000610cdd565b565b60606004805461033690610e66565b6000338161063482866107e1565b9050838110156106945760405162461bcd60e51b815260206004820152602560248201527f45524332303a2064656372656173656420616c6c6f77616e63652062656c6f77604482015264207a65726f60d81b6064820152608401610452565b6103ec8286868403610882565b600081116106e25760405162461bcd60e51b815260206004820152600e60248201526d043616e6e6f74207374616b6520360941b6044820152606401610452565b336000908152602081905260409020548111156107385760405162461bcd60e51b8152602060048201526014602482015273496e73756666696369656e742062616c616e636560601b6044820152606401610452565b3360009081526006602052604090205415610755576107556105d0565b610760333083610a20565b336000908152600660205260408120805483929061077f908490610ec9565b90915550503360008181526007602052604090819020429055517f9e71bc8eea02a63969f509818f2dafb9254532904319f9dbda79b67bd34a5f3d906107c89084815260200190565b60405180910390a250565b6000336103c7818585610a20565b6001600160a01b03918216600090815260016020908152604080832093909416825291909152205490565b610814610c83565b6001600160a01b0381166108795760405162461bcd60e51b815260206004820152602660248201527f4f776e61626c653a206e6577206f776e657220697320746865207a65726f206160448201526564647265737360d01b6064820152608401610452565b61060081610cdd565b6001600160a01b0383166108e45760405162461bcd60e51b8152602060048201526024808201527f45524332303a20617070726f76652066726f6d20746865207a65726f206164646044820152637265737360e01b6064820152608401610452565b6001600160a01b0382166109455760405162461bcd60e51b815260206004820152602260248201527f45524332303a20617070726f766520746f20746865207a65726f206164647265604482015261737360f01b6064820152608401610452565b6001600160a01b0383811660008181526001602090815260408083209487168084529482529182902085905590518481527f8c5be1e5ebec7d5bd14f71427d1e84f3dd0314c0f7b2291e5b200ac8c7c3b925910160405180910390a3505050565b60006109b284846107e1565b90506000198114610a1a5781811015610a0d5760405162461bcd60e51b815260206004820152601d60248201527f45524332303a20696e73756666696369656e7420616c6c6f77616e63650000006044820152606401610452565b610a1a8484848403610882565b50505050565b6001600160a01b038316610a845760405162461bcd60e51b815260206004820152602560248201527f45524332303a207472616e736665722066726f6d20746865207a65726f206164604482015264647265737360d81b6064820152608401610452565b6001600160a01b038216610ae65760405162461bcd60e51b815260206004820152602360248201527f45524332303a207472616e7366657220746f20746865207a65726f206164647260448201526265737360e81b6064820152608401610452565b6001600160a01b03831660009081526020819052604090205481811015610b5e5760405162461bcd60e51b815260206004820152602660248201527f45524332303a207472616e7366657220616d6f756e7420657863656564732062604482015265616c616e636560d01b6064820152608401610452565b6001600160a01b03848116600081815260208181526040808320878703905593871680835291849020805487019055925185815290927fddf252ad1be2c89b69c2b068fc378daa952ba7f163c4a11628f55a4df523b3ef910160405180910390a3610a1a565b6001600160a01b038216610c1a5760405162461bcd60e51b815260206004820152601f60248201527f45524332303a206d696e7420746f20746865207a65726f2061646472657373006044820152606401610452565b8060026000828254610c2c9190610ec9565b90915550506001600160a01b038216600081815260208181526040808320805486019055518481527fddf252ad1be2c89b69c2b068fc378daa952ba7f163c4a11628f55a4df523b3ef910160405180910390a35050565b6005546001600160a01b031633146106155760405162461bcd60e51b815260206004820181905260248201527f4f776e61626c653a2063616c6c6572206973206e6f7420746865206f776e65726044820152606401610452565b600580546001600160a01b038381166001600160a01b0319831681179093556040519116919082907f8be0079c531659141344cd1fd0a4f28419497f9722a3daafe3b4186f6b6457e090600090a35050565b600060208083528351808285015260005b81811015610d5c57858101830151858201604001528201610d40565b506000604082860101526040601f19601f8301168501019250505092915050565b80356001600160a01b0381168114610d9457600080fd5b919050565b60008060408385031215610dac57600080fd5b610db583610d7d565b946020939093013593505050565b600060208284031215610dd557600080fd5b6105c982610d7d565b600080600060608486031215610df357600080fd5b610dfc84610d7d565b9250610e0a60208501610d7d565b9150604084013590509250925092565b600060208284031215610e2c57600080fd5b5035919050565b60008060408385031215610e4657600080fd5b610e4f83610d7d565b9150610e5d60208401610d7d565b90509250929050565b600181811c90821680610e7a57607f821691505b602082108103610e9a57634e487b7160e01b600052602260045260246000fd5b50919050565b634e487b7160e01b600052601160045260246000fd5b818103818111156103cd576103cd610ea0565b808201808211156103cd576103cd610ea0565b80820281158282048414176103cd576103cd610ea0565b600082610f1057634e487b7160e01b600052601260045260246000fd5b50049056fea26469706673582212204a6c14a4f482ac49992c7c7b831a35f95ee362d4872d4a8aef607d09edea26fb64736f6c63430008130033",
  "linkReferences": {},
  "deployedLinkReferences": {}
}