{
  "_format": "hh-sol-artifact-1",
  "contractName": "NazdeekiCore",
  "sourceName": "contracts/NazdeekiCore.sol",
  "abi": [
    {
      "inputs": [],
      "stateMutability": "nonpayable",
      "type": "constructor"
    },
    {
      "anonymous": false,
      "inputs": [
        {
          "indexed": true,
          "internalType": "address",
          "name": "agent",
          "type": "address"
        }
      ],
      "name": "AgentAuthorized",
      "type": "event"
    },
    {
      "anonymous": false,
      "inputs": [
        {
          "indexed": true,
          "internalType": "address",
          "name": "user",
          "type": "address"
        },
        {
          "indexed": false,
          "internalType": "uint256",
          "name": "amount",
          "type": "uint256"
        }
      ],
      "name": "LoyaltyRewarded",
      "type": "event"
    },
    {
      "anonymous": false,
      "inputs": [
        {
          "indexed": true,
          "internalType": "uint256",
          "name": "orderId",
          "type": "uint256"
        },
        {
          "indexed": true,
          "internalType": "address",
          "name": "customer",
          "type": "address"
        },
        {
          "indexed": true,
          "internalType": "address",
          "name": "restaurant",
          "type": "address"
        },
        {
          "indexed": false,
          "internalType": "uint256",
          "name": "amount",
          "type": "uint256"
        },
        {
          "indexed": false,
          "internalType": "string",
          "name": "serviceType",
          "type": "string"
        }
      ],
      "name": "OrderCreated",
      "type": "event"
    },
    {
      "anonymous": false,
      "inputs": [
        {
          "indexed": true,
          "internalType": "uint256",
          "name": "orderId",
          "type": "uint256"
        },
        {
          "indexed": false,
          "internalType": "string",
          "name": "status",
          "type": "string"
        }
      ],
      "name": "OrderStatusUpdated",
      "type": "event"
    },
    {
      "anonymous": false,
      "inputs": [
        {
          "indexed": true,
          "internalType": "address",
          "name": "previousOwner",
          "type": "address"
        },
        {
          "indexed": true,
          "internalType": "address",
          "name": "newOwner",
          "type": "address"
        }
      ],
      "name": "OwnershipTransferred",
      "type": "event"
    },
    {
      "anonymous": false,
      "inputs": [
        {
          "indexed": true,
          "internalType": "address",
          "name": "restaurant",
          "type": "address"
        },
        {
          "indexed": false,
          "internalType": "string",
          "name": "name",
          "type": "string"
        }
      ],
      "name": "RestaurantRegistered",
      "type": "event"
    },
    {
      "inputs": [],
      "name": "LOYALTY_REWARD_PERCENT",
      "outputs": [
        {
          "internalType": "uint256",
          "name": "",
          "type": "uint256"
        }
      ],
      "stateMutability": "view",
      "type": "function"
    },
    {
      "inputs": [
        {
          "internalType": "address",
          "name": "agent",
          "type": "address"
        }
      ],
      "name": "authorizeAgent",
      "outputs": [],
      "stateMutability": "nonpayable",
      "type": "function"
    },
    {
      "inputs": [
        {
          "internalType": "address",
          "name": "",
          "type": "address"
        }
      ],
      "name": "authorizedAgents",
      "outputs": [
        {
          "internalType": "bool",
          "name": "",
          "type": "bool"
        }
      ],
      "stateMutability": "view",
      "type": "function"
    },
    {
      "inputs": [
        {
          "internalType": "address",
          "name": "customer",
          "type": "address"
        },
        {
          "internalType": "address",
          "name": "restaurant",
          "type": "address"
        },
        {
          "internalType": "uint256",
          "name": "amount",
          "type": "uint256"
        },
        {
          "internalType": "string",
          "name": "serviceType",
          "type": "string"
        }
      ],
      "name": "createGaslessOrder",
      "outputs": [
        {
          "internalType": "uint256",
          "name": "",
          "type": "uint256"
        }
      ],
      "stateMutability": "nonpayable",
      "type": "function"
    },
    {
      "inputs": [
        {
          "internalType": "uint256",
          "name": "orderId",
          "type": "uint256"
        }
      ],
      "name": "getOrder",
      "outputs": [
        {
          "components": [
            {
              "internalType": "uint256",
              "name": "orderId",
              "type": "uint256"
            },
            {
              "internalType": "address",
              "name": "customer",
              "type": "address"
            },
            {
              "internalType": "address",
              "name": "restaurant",
              "type": "address"
            },
            {
              "internalType": "uint256",
              "name": "amount",
              "type": "uint256"
            },
            {
              "internalType": "string",
              "name": "status",
              "type": "string"
            },
            {
              "internalType": "uint256",
              "name": "timestamp",
              "type": "uint256"
            },
            {
              "internalType": "string",
              "name": "serviceType",
              "type": "string"
            },
            {
              "internalType": "bool",
              "name": "gaslessSponsored",
              "type": "bool"
            }
          ],
          "internalType": "struct NazdeekiCore.Order",
          "name": "",
          "type": "tuple"
        }
      ],
      "stateMutability": "view",
      "type": "function"
    },
    {
      "inputs": [
        {
          "internalType": "address",
          "name": "restaurant",
          "type": "address"
        }
      ],
      "name": "getRestaurant",
      "outputs": [
        {
          "components": [
            {
              "internalType": "address",
              "name": "wallet",
              "type": "address"
            },
            {
              "internalType": "string",
              "name": "name",
              "type": "string"
            },
            {
              "internalType": "string",
              "name": "location",
              "type": "string"
            },
            {
              "internalType": "bool",
              "name": "isActive",
              "type": "bool"
            },
            {
              "internalType": "uint256",
              "name": "totalOrders",
              "type": "uint256"
            }
          ],
          "internalType": "struct NazdeekiCore.Restaurant",
          "name": "",
          "type": "tuple"
        }
      ],
      "stateMutability": "view",
      "type": "function"
    },
    {
      "inputs": [
        {
          "internalType": "address",
          "name": "user",
          "type": "address"
        }
      ],
      "name": "getUserLoyaltyTokens",
      "outputs": [
        {
          "internalType": "uint256",
          "name": "",
          "type": "uint256"
        }
      ],
      "stateMutability": "view",
      "type": "function"
    },
    {
      "inputs": [
        {
          "internalType": "address",
          "name": "",
          "type": "address"
        }
      ],
      "name": "loyaltyTokens",
      "outputs": [
        {
          "internalType": "uint256",
          "name": "",
          "type": "uint256"
        }
      ],
      "stateMutability": "view",
      "type": "function"
    },
    {
      "inputs": [],
      "name": "orderCounter",
      "outputs": [
        {
          "internalType": "uint256",
          "name": "",
          "type": "uint256"
        }
      ],
      "stateMutability": "view",
      "type": "function"
    },
    {
      "inputs": [
        {
          "internalType": "uint256",
          "name": "",
          "type": "uint256"
        }
      ],
      "name": "orders",
      "outputs": [
        {
          "internalType": "uint256",
          "name": "orderId",
          "type": "uint256"
        },
        {
          "internalType": "address",
          "name": "customer",
          "type": "address"
        },
        {
          "internalType": "address",
          "name": "restaurant",
          "type": "address"
        },
        {
          "internalType": "uint256",
          "name": "amount",
          "type": "uint256"
        },
        {
          "internalType": "string",
          "name": "status",
          "type": "string"
        },
        {
          "internalType": "uint256",
          "name": "timestamp",
          "type": "uint256"
        },
        {
          "internalType": "string",
          "name": "serviceType",
          "type": "string"
        },
        {
          "internalType": "bool",
          "name": "gaslessSponsored",
          "type": "bool"
        }
      ],
      "stateMutability": "view",
      "type": "function"
    },
    {
      "inputs": [],
      "name": "owner",
      "outputs": [
        {
          "internalType": "address",
          "name": "",
          "type": "address"
        }
      ],
      "stateMutability": "view",
      "type": "function"
    },
    {
      "inputs": [
        {
          "internalType": "address",
          "name": "restaurantWallet",
          "type": "address"
        },
        {
          "internalType": "string",
          "name": "name",
          "type": "string"
        },
        {
          "internalType": "string",
          "name": "location",
          "type": "string"
        }
      ],
      "name": "registerRestaurant",
      "outputs": [],
      "stateMutability": "nonpayable",
      "type": "function"
    },
    {
      "inputs": [],
      "name": "renounceOwnership",
      "outputs": [],
      "stateMutability": "nonpayable",
      "type": "function"
    },
    {
      "inputs": [
        {
          "internalType": "address",
          "name": "",
          "type": "address"
        }
      ],
      "name": "restaurants",
      "outputs": [
        {
          "internalType": "address",
          "name": "wallet",
          "type": "address"
        },
        {
          "internalType": "string",
          "name": "name",
          "type": "string"
        },
        {
          "internalType": "string",
          "name": "location",
          "type": "string"
        },
        {
          "internalType": "bool",
          "name": "isActive",
          "type": "bool"
        },
        {
          "internalType": "uint256",
          "name": "totalOrders",
          "type": "uint256"
        }
      ],
      "stateMutability": "view",
      "type": "function"
    },
    {
      "inputs": [
        {
          "internalType": "address",
          "name": "newOwner",
          "type": "address"
        }
      ],
      "name": "transferOwnership",
      "outputs": [],
      "stateMutability": "nonpayable",
      "type": "function"
    },
    {
      "inputs": [
        {
          "internalType": "uint256",
          "name": "orderId",
          "type": "uint256"
        },
        {
          "internalType": "string",
          "name": "status",
          "type": "string"
        }
      ],
      "name": "updateOrderStatus",
      "outputs": [],
      "stateMutability": "nonpayable",
      "type": "function"
    }
  ],
  "bytecode": "0x608060405234801561001057600080fd5b50600160005561001f3361003e565b336000908152600560205260409020805460ff19166001179055610090565b600180546001600160a01b038381166001600160a01b0319831681179093556040519116919082907f8be0079c531659141344cd1fd0a4f28419497f9722a3daafe3b4186f6b6457e090600090a35050565b61178f8061009f6000396000f3fe608060405234801561001057600080fd5b50600436106101005760003560e01c80638da5cb5b11610097578063d09ef24111610066578063d09ef2411461022e578063dff4a5e81461024e578063efd760651461026e578063f2fde38b146102a157600080fd5b80638da5cb5b146101db578063a85c38ef146101f6578063b789bf521461021d578063bd1747401461022657600080fd5b806355fbc5ba116100d357806355fbc5ba146101845780636d88b24d146101975780636f4ba67e146101aa578063715018a6146101d357600080fd5b80631c2b7c6114610105578063205fdde61461012b578063236cd7dc1461014057806354f6a42714610164575b600080fd5b6101186101133660046111f4565b6102b4565b6040519081526020015b60405180910390f35b61013e61013936600461125c565b610576565b005b61015361014e3660046112a3565b6107a5565b60405161012295949392919061130b565b6101186101723660046112a3565b60046020526000908152604090205481565b61013e610192366004611356565b6108f2565b61013e6101a53660046112a3565b610a40565b6101186101b83660046112a3565b6001600160a01b031660009081526004602052604090205490565b61013e610a94565b6001546040516001600160a01b039091168152602001610122565b6102096102043660046113ca565b610aa8565b6040516101229897969594939291906113e3565b61011860065481565b610118600581565b61024161023c3660046113ca565b610c0c565b604051610122919061144f565b61026161025c3660046112a3565b610e03565b60405161012291906114f5565b61029161027c3660046112a3565b60056020526000908152604090205460ff1681565b6040519015158152602001610122565b61013e6102af3660046112a3565b610fb7565b3360009081526005602052604081205460ff16806102dc57506001546001600160a01b031633145b6103245760405162461bcd60e51b8152602060048201526014602482015273139bdd08185d5d1a1bdc9a5e9959081859d95b9d60621b60448201526064015b60405180910390fd5b61032c611030565b6001600160a01b0384166000908152600360208190526040909120015460ff166103905760405162461bcd60e51b815260206004820152601560248201527452657374617572616e74206e6f742061637469766560581b604482015260640161031b565b600083116103d15760405162461bcd60e51b815260206004820152600e60248201526d125b9d985b1a5908185b5bdd5b9d60921b604482015260640161031b565b600680549060006103e183611579565b909155505060065460408051610100810182528281526001600160a01b038089166020808401918252898316848601908152606085018a815286518088018852600781526670656e64696e6760c81b81850152608087019081524260a088015260c087018b9052600160e0880181905260008a81526002958690529890982087518155945197850180549887166001600160a01b0319998a1617905591519284018054939095169290961691909117909255925160038401555190919060048201906104ad908261161b565b5060a0820151600582015560c082015160068201906104cc908261161b565b5060e091909101516007909101805460ff19169115159190911790556001600160a01b038516600090815260036020526040812060040180549161050f83611579565b9190505550846001600160a01b0316866001600160a01b0316827f8a5442842accf64d1d239f8d2d0d32444aca25253e6b134bcf8e47207209eb14878760405161055a9291906116db565b60405180910390a4905061056e6001600055565b949350505050565b60008281526002602052604081205490036105ca5760405162461bcd60e51b815260206004820152601460248201527313dc99195c88191bd95cc81b9bdd08195e1a5cdd60621b604482015260640161031b565b600082815260026020819052604090912001546001600160a01b031633148061060257503360009081526005602052604090205460ff165b61063f5760405162461bcd60e51b815260206004820152600e60248201526d139bdd08185d5d1a1bdc9a5e995960921b604482015260640161031b565b600082815260026020526040902060040161065a828261161b565b50817f69cc2ff377f3eb15084b7510fd6ee5543db4f1e15b8385d9f0c804cbe9edd0fc8260405161068b91906116f4565b60405180910390a260408051808201909152600981526819195b1a5d995c995960ba1b6020918201528151908201207fd83e2f252a6039ec19940e267437ecfeb9d6b7d92a34e28100e627723ddffee0016107a15760008281526002602052604081206003015460649061070190600590611707565b61070b9190611724565b6000848152600260209081526040808320600101546001600160a01b031683526004909152812080549293508392909190610747908490611746565b90915550506000838152600260209081526040918290206001015491518381526001600160a01b03909216917fdbb44ad9681c2fb2f64df6e3c8ff04ddbefb0607222c61fdc73272c673f1de0291015b60405180910390a2505b5050565b600360205260009081526040902080546001820180546001600160a01b0390921692916107d190611592565b80601f01602080910402602001604051908101604052809291908181526020018280546107fd90611592565b801561084a5780601f1061081f5761010080835404028352916020019161084a565b820191906000526020600020905b81548152906001019060200180831161082d57829003601f168201915b50505050509080600201805461085f90611592565b80601f016020809104026020016040519081016040528092919081815260200182805461088b90611592565b80156108d85780601f106108ad576101008083540402835291602001916108d8565b820191906000526020600020905b8154815290600101906020018083116108bb57829003601f168201915b505050506003830154600490930154919260ff1691905085565b3360009081526005602052604090205460ff168061091a57506001546001600160a01b031633145b61095d5760405162461bcd60e51b8152602060048201526014602482015273139bdd08185d5d1a1bdc9a5e9959081859d95b9d60621b604482015260640161031b565b6040805160a0810182526001600160a01b038581168083526020808401878152848601879052600160608601819052600060808701819052938452600390925294909120835181546001600160a01b0319169316929092178255925191929091908201906109cb908261161b565b50604082015160028201906109e0908261161b565b50606082015160038201805460ff19169115159190911790556080909101516004909101556040516001600160a01b038416907fb56b53292c5dd9885c6378743872b8126c9486b0bd1f95fe4cbc4b8842340e6f906107979085906116f4565b610a48611089565b6001600160a01b038116600081815260056020526040808220805460ff19166001179055517f26e663c48c070d2d3c2bf6bcf88dc0a1e3ae99c58c36411130bed5924cf952669190a250565b610a9c611089565b610aa660006110e3565b565b60026020819052600091825260409091208054600182015492820154600383015460048401805493956001600160a01b0390811695931693919291610aec90611592565b80601f0160208091040260200160405190810160405280929190818152602001828054610b1890611592565b8015610b655780601f10610b3a57610100808354040283529160200191610b65565b820191906000526020600020905b815481529060010190602001808311610b4857829003601f168201915b505050505090806005015490806006018054610b8090611592565b80601f0160208091040260200160405190810160405280929190818152602001828054610bac90611592565b8015610bf95780601f10610bce57610100808354040283529160200191610bf9565b820191906000526020600020905b815481529060010190602001808311610bdc57829003601f168201915b5050506007909301549192505060ff1688565b610c686040518061010001604052806000815260200160006001600160a01b0316815260200160006001600160a01b03168152602001600081526020016060815260200160008152602001606081526020016000151581525090565b6000828152600260208181526040928390208351610100810185528154815260018201546001600160a01b0390811693820193909352928101549091169282019290925260038201546060820152600482018054919291608084019190610cce90611592565b80601f0160208091040260200160405190810160405280929190818152602001828054610cfa90611592565b8015610d475780601f10610d1c57610100808354040283529160200191610d47565b820191906000526020600020905b815481529060010190602001808311610d2a57829003601f168201915b5050505050815260200160058201548152602001600682018054610d6a90611592565b80601f0160208091040260200160405190810160405280929190818152602001828054610d9690611592565b8015610de35780601f10610db857610100808354040283529160200191610de3565b820191906000526020600020905b815481529060010190602001808311610dc657829003601f168201915b50505091835250506007919091015460ff16151560209091015292915050565b610e406040518060a0016040528060006001600160a01b031681526020016060815260200160608152602001600015158152602001600081525090565b6001600160a01b03808316600090815260036020908152604091829020825160a081019093528054909316825260018301805492939291840191610e8390611592565b80601f0160208091040260200160405190810160405280929190818152602001828054610eaf90611592565b8015610efc5780601f10610ed157610100808354040283529160200191610efc565b820191906000526020600020905b815481529060010190602001808311610edf57829003601f168201915b50505050508152602001600282018054610f1590611592565b80601f0160208091040260200160405190810160405280929190818152602001828054610f4190611592565b8015610f8e5780601f10610f6357610100808354040283529160200191610f8e565b820191906000526020600020905b815481529060010190602001808311610f7157829003601f168201915b5050509183525050600382015460ff161515602082015260049091015460409091015292915050565b610fbf611089565b6001600160a01b0381166110245760405162461bcd60e51b815260206004820152602660248201527f4f776e61626c653a206e6577206f776e657220697320746865207a65726f206160448201526564647265737360d01b606482015260840161031b565b61102d816110e3565b50565b6002600054036110825760405162461bcd60e51b815260206004820152601f60248201527f5265656e7472616e637947756172643a207265656e7472616e742063616c6c00604482015260640161031b565b6002600055565b6001546001600160a01b03163314610aa65760405162461bcd60e51b815260206004820181905260248201527f4f776e61626c653a2063616c6c6572206973206e6f7420746865206f776e6572604482015260640161031b565b600180546001600160a01b038381166001600160a01b0319831681179093556040519116919082907f8be0079c531659141344cd1fd0a4f28419497f9722a3daafe3b4186f6b6457e090600090a35050565b80356001600160a01b038116811461114c57600080fd5b919050565b634e487b7160e01b600052604160045260246000fd5b600082601f83011261117857600080fd5b813567ffffffffffffffff8082111561119357611193611151565b604051601f8301601f19908116603f011681019082821181831017156111bb576111bb611151565b816040528381528660208588010111156111d457600080fd5b836020870160208301376000602085830101528094505050505092915050565b6000806000806080858703121561120a57600080fd5b61121385611135565b935061122160208601611135565b925060408501359150606085013567ffffffffffffffff81111561124457600080fd5b61125087828801611167565b91505092959194509250565b6000806040838503121561126f57600080fd5b82359150602083013567ffffffffffffffff81111561128d57600080fd5b61129985828601611167565b9150509250929050565b6000602082840312156112b557600080fd5b6112be82611135565b9392505050565b6000815180845260005b818110156112eb576020818501810151868301820152016112cf565b506000602082860101526020601f19601f83011685010191505092915050565b6001600160a01b038616815260a06020820181905260009061132f908301876112c5565b828103604084015261134181876112c5565b94151560608401525050608001529392505050565b60008060006060848603121561136b57600080fd5b61137484611135565b9250602084013567ffffffffffffffff8082111561139157600080fd5b61139d87838801611167565b935060408601359150808211156113b357600080fd5b506113c086828701611167565b9150509250925092565b6000602082840312156113dc57600080fd5b5035919050565b8881526001600160a01b03888116602083015287166040820152606081018690526101006080820181905260009061141d838201886112c5565b90508560a084015282810360c084015261143781866112c5565b91505082151560e08301529998505050505050505050565b602081528151602082015260018060a01b0360208301511660408201526000604083015161148860608401826001600160a01b03169052565b506060830151608083015260808301516101008060a08501526114af6101208501836112c5565b915060a085015160c085015260c0850151601f198584030160e08601526114d683826112c5565b92505060e08501516114eb8286018215159052565b5090949350505050565b602080825282516001600160a01b03168282015282015160a0604083015260009061152360c08401826112c5565b90506040840151601f1984830301606085015261154082826112c5565b915050606084015115156080840152608084015160a08401528091505092915050565b634e487b7160e01b600052601160045260246000fd5b60006001820161158b5761158b611563565b5060010190565b600181811c908216806115a657607f821691505b6020821081036115c657634e487b7160e01b600052602260045260246000fd5b50919050565b601f82111561161657600081815260208120601f850160051c810160208610156115f35750805b601f850160051c820191505b81811015611612578281556001016115ff565b5050505b505050565b815167ffffffffffffffff81111561163557611635611151565b611649816116438454611592565b846115cc565b602080601f83116001811461167e57600084156116665750858301515b600019600386901b1c1916600185901b178555611612565b600085815260208120601f198616915b828110156116ad5788860151825594840194600190910190840161168e565b50858210156116cb5787850151600019600388901b60f8161c191681555b5050505050600190811b01905550565b82815260406020820152600061056e60408301846112c5565b6020815260006112be60208301846112c5565b808202811582820484141761171e5761171e611563565b92915050565b60008261174157634e487b7160e01b600052601260045260246000fd5b500490565b8082018082111561171e5761171e61156356fea2646970667358221220a5289a79d0cb8515bdd087b95090ab43c5053e22d86735cc81cbdd86976b3df064736f6c63430008130033",
  "linkReferences": {},
  "deployedLinkReferences": {}
}