{
  "_format": "hh-sol-artifact-1",
  "contractName": "NazdeekiPaymaster",
  "sourceName": "contracts/NazdeekiPaymaster.sol",
  "abi": [
    {
      "inputs": [],
      "stateMutability": "nonpayable",
      "type": "constructor"
    },
    {
      "anonymous": false,
      "inputs": [
        {
          "indexed": true,
          "internalType": "address",
          "name": "agent",
          "type": "address"
        }
      ],
      "name": "AgentAuthorized",
      "type": "event"
    },
    {
      "anonymous": false,
      "inputs": [
        {
          "indexed": true,
          "internalType": "address",
          "name": "user",
          "type": "address"
        },
        {
          "indexed": false,
          "internalType": "uint256",
          "name": "amount",
          "type": "uint256"
        }
      ],
      "name": "GasSponsored",
      "type": "event"
    },
    {
      "inputs": [
        {
          "internalType": "address",
          "name": "agent",
          "type": "address"
        }
      ],
      "name": "authorizeAgent",
      "outputs": [],
      "stateMutability": "nonpayable",
      "type": "function"
    },
    {
      "inputs": [
        {
          "internalType": "address",
          "name": "",
          "type": "address"
        }
      ],
      "name": "authorizedAgents",
      "outputs": [
        {
          "internalType": "bool",
          "name": "",
          "type": "bool"
        }
      ],
      "stateMutability": "view",
      "type": "function"
    },
    {
      "inputs": [
        {
          "internalType": "address",
          "name": "user",
          "type": "address"
        }
      ],
      "name": "isGasSponsored",
      "outputs": [
        {
          "internalType": "bool",
          "name": "",
          "type": "bool"
        }
      ],
      "stateMutability": "view",
      "type": "function"
    },
    {
      "inputs": [],
      "name": "owner",
      "outputs": [
        {
          "internalType": "address",
          "name": "",
          "type": "address"
        }
      ],
      "stateMutability": "view",
      "type": "function"
    },
    {
      "inputs": [
        {
          "internalType": "address",
          "name": "user",
          "type": "address"
        },
        {
          "internalType": "uint256",
          "name": "amount",
          "type": "uint256"
        }
      ],
      "name": "sponsorGas",
      "outputs": [],
      "stateMutability": "nonpayable",
      "type": "function"
    },
    {
      "inputs": [
        {
          "internalType": "address",
          "name": "",
          "type": "address"
        }
      ],
      "name": "sponsoredGas",
      "outputs": [
        {
          "internalType": "uint256",
          "name": "",
          "type": "uint256"
        }
      ],
      "stateMutability": "view",
      "type": "function"
    },
    {
      "inputs": [],
      "name": "withdraw",
      "outputs": [],
      "stateMutability": "nonpayable",
      "type": "function"
    },
    {
      "stateMutability": "payable",
      "type": "receive"
    }
  ],
  "bytecode": "0x608060405234801561001057600080fd5b50600280546001600160a01b031916339081179091556000908152602081905260409020805460ff191660011790556104648061004e6000396000f3fe6080604052600436106100745760003560e01c80638da5cb5b1161004e5780638da5cb5b14610104578063cda06f761461013c578063d2f4071814610177578063efd760651461019757600080fd5b8063198d6f71146100805780633ccfd60b146100cd5780636d88b24d146100e457600080fd5b3661007b57005b600080fd5b34801561008c57600080fd5b506100b861009b3660046103bb565b6001600160a01b0316600090815260016020526040902054151590565b60405190151581526020015b60405180910390f35b3480156100d957600080fd5b506100e26101c7565b005b3480156100f057600080fd5b506100e26100ff3660046103bb565b61024e565b34801561011057600080fd5b50600254610124906001600160a01b031681565b6040516001600160a01b0390911681526020016100c4565b34801561014857600080fd5b506101696101573660046103bb565b60016020526000908152604090205481565b6040519081526020016100c4565b34801561018357600080fd5b506100e26101923660046103dd565b6102e0565b3480156101a357600080fd5b506100b86101b23660046103bb565b60006020819052908152604090205460ff1681565b6002546001600160a01b031633146102125760405162461bcd60e51b81526020600482015260096024820152682737ba1037bbb732b960b91b60448201526064015b60405180910390fd5b6002546040516001600160a01b03909116904780156108fc02916000818181858888f1935050505015801561024b573d6000803e3d6000fd5b50565b6002546001600160a01b031633146102945760405162461bcd60e51b81526020600482015260096024820152682737ba1037bbb732b960b91b6044820152606401610209565b6001600160a01b038116600081815260208190526040808220805460ff19166001179055517f26e663c48c070d2d3c2bf6bcf88dc0a1e3ae99c58c36411130bed5924cf952669190a250565b3360009081526020819052604090205460ff166103305760405162461bcd60e51b815260206004820152600e60248201526d139bdd08185d5d1a1bdc9a5e995960921b6044820152606401610209565b6001600160a01b03821660009081526001602052604081208054839290610358908490610407565b90915550506040518181526001600160a01b038316907f2f5b7da0b8502c9a04f1c60a92a12cc859cb3cefb8951253e2f1c0df6c65d28d9060200160405180910390a25050565b80356001600160a01b03811681146103b657600080fd5b919050565b6000602082840312156103cd57600080fd5b6103d68261039f565b9392505050565b600080604083850312156103f057600080fd5b6103f98361039f565b946020939093013593505050565b8082018082111561042857634e487b7160e01b600052601160045260246000fd5b9291505056fea264697066735822122099dcddf3d6aa97556009258b1aa1866d0f59d98b0ca1bcdbc90625fc8fa8480764736f6c63430008130033",
  "linkReferences": {},
  "deployedLinkReferences": {}
}